{
  "_format": "hh-sol-artifact-1",
  "contractName": "LiquidityPoolFactory",
  "sourceName": "contracts/LiquidityPoolFactory.sol",
  "abi": [
    {
      "anonymous": false,
      "inputs": [
        {
          "indexed": true,
          "internalType": "address",
          "name": "tokenA",
          "type": "address"
        },
        {
          "indexed": true,
          "internalType": "address",
          "name": "tokenB",
          "type": "address"
        },
        {
          "indexed": false,
          "internalType": "address",
          "name": "pool",
          "type": "address"
        }
      ],
      "name": "PoolCreated",
      "type": "event"
    },
    {
      "inputs": [
        {
          "internalType": "uint256",
          "name": "",
          "type": "uint256"
        }
      ],
      "name": "allPools",
      "outputs": [
        {
          "internalType": "address",
          "name": "",
          "type": "address"
        }
      ],
      "stateMutability": "view",
      "type": "function"
    },
    {
      "inputs": [
        {
          "internalType": "address",
          "name": "tokenA",
          "type": "address"
        },
        {
          "internalType": "address",
          "name": "tokenB",
          "type": "address"
        }
      ],
      "name": "createPool",
      "outputs": [
        {
          "internalType": "address",
          "name": "pool",
          "type": "address"
        }
      ],
      "stateMutability": "nonpayable",
      "type": "function"
    },
    {
      "inputs": [],
      "name": "getAllPools",
      "outputs": [
        {
          "internalType": "address[]",
          "name": "",
          "type": "address[]"
        }
      ],
      "stateMutability": "view",
      "type": "function"
    },
    {
      "inputs": [
        {
          "internalType": "address",
          "name": "",
          "type": "address"
        },
        {
          "internalType": "address",
          "name": "",
          "type": "address"
        }
      ],
      "name": "getPool",
      "outputs": [
        {
          "internalType": "address",
          "name": "",
          "type": "address"
        }
      ],
      "stateMutability": "view",
      "type": "function"
    }
  ],
  "bytecode": "0x608060405234801561001057600080fd5b506146f3806100206000396000f3fe60806040523480156200001157600080fd5b5060043610620000525760003560e01c806341d1de971462000057578063531aa03e146200008d578063d88ff1f414620000c3578063e343361514620000e5575b600080fd5b6200007560048036038101906200006f91906200067c565b6200011b565b604051620000849190620006f3565b60405180910390f35b620000ab6004803603810190620000a5919062000741565b6200015b565b604051620000ba9190620006f3565b60405180910390f35b620000cd6200019d565b604051620000dc919062000856565b60405180910390f35b620001036004803603810190620000fd919062000741565b6200022d565b604051620001129190620006f3565b60405180910390f35b600181815481106200012c57600080fd5b906000526020600020016000915054906101000a900473ffffffffffffffffffffffffffffffffffffffff1681565b60006020528160005260406000206020528060005260406000206000915091509054906101000a900473ffffffffffffffffffffffffffffffffffffffff1681565b606060018054806020026020016040519081016040528092919081815260200182805480156200022357602002820191906000526020600020905b8160009054906101000a900473ffffffffffffffffffffffffffffffffffffffff1673ffffffffffffffffffffffffffffffffffffffff1681526020019060010190808311620001d8575b5050505050905090565b60008173ffffffffffffffffffffffffffffffffffffffff168373ffffffffffffffffffffffffffffffffffffffff1603620002a0576040517f08c379a00000000000000000000000000000000000000000000000000000000081526004016200029790620008db565b60405180910390fd5b600073ffffffffffffffffffffffffffffffffffffffff166000808573ffffffffffffffffffffffffffffffffffffffff1673ffffffffffffffffffffffffffffffffffffffff16815260200190815260200160002060008473ffffffffffffffffffffffffffffffffffffffff1673ffffffffffffffffffffffffffffffffffffffff16815260200190815260200160002060009054906101000a900473ffffffffffffffffffffffffffffffffffffffff1673ffffffffffffffffffffffffffffffffffffffff1614620003ad576040517f08c379a0000000000000000000000000000000000000000000000000000000008152600401620003a4906200094d565b60405180910390fd5b8282604051620003bd906200062e565b620003ca9291906200096f565b604051809103906000f080158015620003e7573d6000803e3d6000fd5b509050806000808573ffffffffffffffffffffffffffffffffffffffff1673ffffffffffffffffffffffffffffffffffffffff16815260200190815260200160002060008473ffffffffffffffffffffffffffffffffffffffff1673ffffffffffffffffffffffffffffffffffffffff16815260200190815260200160002060006101000a81548173ffffffffffffffffffffffffffffffffffffffff021916908373ffffffffffffffffffffffffffffffffffffffff160217905550806000808473ffffffffffffffffffffffffffffffffffffffff1673ffffffffffffffffffffffffffffffffffffffff16815260200190815260200160002060008573ffffffffffffffffffffffffffffffffffffffff1673ffffffffffffffffffffffffffffffffffffffff16815260200190815260200160002060006101000a81548173ffffffffffffffffffffffffffffffffffffffff021916908373ffffffffffffffffffffffffffffffffffffffff1602179055506001819080600181540180825580915050600190039060005260206000200160009091909190916101000a81548173ffffffffffffffffffffffffffffffffffffffff021916908373ffffffffffffffffffffffffffffffffffffffff1602179055508173ffffffffffffffffffffffffffffffffffffffff168373ffffffffffffffffffffffffffffffffffffffff167f9c5d829b9b23efc461f9aeef91979ec04bb903feb3bee4f26d22114abfc7335b83604051620006209190620006f3565b60405180910390a392915050565b613d21806200099d83390190565b600080fd5b6000819050919050565b620006568162000641565b81146200066257600080fd5b50565b60008135905062000676816200064b565b92915050565b6000602082840312156200069557620006946200063c565b5b6000620006a58482850162000665565b91505092915050565b600073ffffffffffffffffffffffffffffffffffffffff82169050919050565b6000620006db82620006ae565b9050919050565b620006ed81620006ce565b82525050565b60006020820190506200070a6000830184620006e2565b92915050565b6200071b81620006ce565b81146200072757600080fd5b50565b6000813590506200073b8162000710565b92915050565b600080604083850312156200075b576200075a6200063c565b5b60006200076b858286016200072a565b92505060206200077e858286016200072a565b9150509250929050565b600081519050919050565b600082825260208201905092915050565b6000819050602082019050919050565b620007bf81620006ce565b82525050565b6000620007d38383620007b4565b60208301905092915050565b6000602082019050919050565b6000620007f98262000788565b62000805818562000793565b93506200081283620007a4565b8060005b83811015620008495781516200082d8882620007c5565b97506200083a83620007df565b92505060018101905062000816565b5085935050505092915050565b60006020820190508181036000830152620008728184620007ec565b905092915050565b600082825260208201905092915050565b7f546f6b656e73206d75737420626520646966666572656e740000000000000000600082015250565b6000620008c36018836200087a565b9150620008d0826200088b565b602082019050919050565b60006020820190508181036000830152620008f681620008b4565b9050919050565b7f506f6f6c20616c72656164792065786973747300000000000000000000000000600082015250565b6000620009356013836200087a565b91506200094282620008fd565b602082019050919050565b60006020820190508181036000830152620009688162000926565b9050919050565b6000604082019050620009866000830185620006e2565b620009956020830184620006e2565b939250505056fe60806040523480156200001157600080fd5b5060405162003d2138038062003d21833981810160405281019062000037919062000229565b60016000819055508073ffffffffffffffffffffffffffffffffffffffff168273ffffffffffffffffffffffffffffffffffffffff1603620000b0576040517f08c379a0000000000000000000000000000000000000000000000000000000008152600401620000a790620002d1565b60405180910390fd5b81600160006101000a81548173ffffffffffffffffffffffffffffffffffffffff021916908373ffffffffffffffffffffffffffffffffffffffff16021790555080600260006101000a81548173ffffffffffffffffffffffffffffffffffffffff021916908373ffffffffffffffffffffffffffffffffffffffff1602179055506040516200014090620001b1565b6200014b9062000393565b604051809103906000f08015801562000168573d6000803e3d6000fd5b50600360006101000a81548173ffffffffffffffffffffffffffffffffffffffff021916908373ffffffffffffffffffffffffffffffffffffffff1602179055505050620003ca565b611fdf8062001d4283390190565b600080fd5b600073ffffffffffffffffffffffffffffffffffffffff82169050919050565b6000620001f182620001c4565b9050919050565b6200020381620001e4565b81146200020f57600080fd5b50565b6000815190506200022381620001f8565b92915050565b60008060408385031215620002435762000242620001bf565b5b6000620002538582860162000212565b9250506020620002668582860162000212565b9150509250929050565b600082825260208201905092915050565b7f546f6b656e73206d75737420626520646966666572656e740000000000000000600082015250565b6000620002b960188362000270565b9150620002c68262000281565b602082019050919050565b60006020820190508181036000830152620002ec81620002aa565b9050919050565b7f4c697175696469747920506f6f6c20546f6b656e000000000000000000000000600082015250565b60006200032b60148362000270565b91506200033882620002f3565b602082019050919050565b7f4c50540000000000000000000000000000000000000000000000000000000000600082015250565b60006200037b60038362000270565b9150620003888262000343565b602082019050919050565b60006040820190508181036000830152620003ae816200031c565b90508181036020830152620003c3816200036c565b9050919050565b61196880620003da6000396000f3fe608060405234801561001057600080fd5b506004361061007d5760003560e01c80635fcbd2851161005b5780635fcbd285146100ef5780639c8f9f231461010d5780639cd441da14610129578063d21220a7146101455761007d565b80630902f1ac1461008257806325be124e146100a15780632aea6605146100bf575b600080fd5b61008a610163565b6040516100989291906112b0565b60405180910390f35b6100a96102a6565b6040516100b69190611358565b60405180910390f35b6100d960048036038101906100d491906113dc565b6102cc565b6040516100e6919061141c565b60405180910390f35b6100f7610839565b6040516101049190611458565b60405180910390f35b61012760048036038101906101229190611473565b61085f565b005b610143600480360381019061013e91906114a0565b610daf565b005b61014d611218565b60405161015a9190611358565b60405180910390f35b600080600160009054906101000a900473ffffffffffffffffffffffffffffffffffffffff1673ffffffffffffffffffffffffffffffffffffffff166370a08231306040518263ffffffff1660e01b81526004016101c19190611501565b602060405180830381865afa1580156101de573d6000803e3d6000fd5b505050506040513d601f19601f820116820180604052508101906102029190611531565b9150600260009054906101000a900473ffffffffffffffffffffffffffffffffffffffff1673ffffffffffffffffffffffffffffffffffffffff166370a08231306040518263ffffffff1660e01b815260040161025f9190611501565b602060405180830381865afa15801561027c573d6000803e3d6000fd5b505050506040513d601f19601f820116820180604052508101906102a09190611531565b90509091565b600260009054906101000a900473ffffffffffffffffffffffffffffffffffffffff1681565b60006102d661123e565b600080600160009054906101000a900473ffffffffffffffffffffffffffffffffffffffff1673ffffffffffffffffffffffffffffffffffffffff166370a08231306040518263ffffffff1660e01b81526004016103349190611501565b602060405180830381865afa158015610351573d6000803e3d6000fd5b505050506040513d601f19601f820116820180604052508101906103759190611531565b600260009054906101000a900473ffffffffffffffffffffffffffffffffffffffff1673ffffffffffffffffffffffffffffffffffffffff166370a08231306040518263ffffffff1660e01b81526004016103d09190611501565b602060405180830381865afa1580156103ed573d6000803e3d6000fd5b505050506040513d601f19601f820116820180604052508101906104119190611531565b91509150831561062457600160009054906101000a900473ffffffffffffffffffffffffffffffffffffffff1673ffffffffffffffffffffffffffffffffffffffff166323b872dd3330886040518463ffffffff1660e01b815260040161047a9392919061155e565b6020604051808303816000875af1158015610499573d6000803e3d6000fd5b505050506040513d601f19601f820116820180604052508101906104bd91906115aa565b6104fc576040517f08c379a00000000000000000000000000000000000000000000000000000000081526004016104f390611634565b60405180910390fd5b60006103e86103e58761050f9190611683565b61051991906116f4565b905080836105279190611725565b82826105339190611683565b61053d91906116f4565b9350600260009054906101000a900473ffffffffffffffffffffffffffffffffffffffff1673ffffffffffffffffffffffffffffffffffffffff1663a9059cbb33866040518363ffffffff1660e01b815260040161059c929190611759565b6020604051808303816000875af11580156105bb573d6000803e3d6000fd5b505050506040513d601f19601f820116820180604052508101906105df91906115aa565b61061e576040517f08c379a0000000000000000000000000000000000000000000000000000000008152600401610615906117ce565b60405180910390fd5b50610829565b600260009054906101000a900473ffffffffffffffffffffffffffffffffffffffff1673ffffffffffffffffffffffffffffffffffffffff166323b872dd3330886040518463ffffffff1660e01b81526004016106839392919061155e565b6020604051808303816000875af11580156106a2573d6000803e3d6000fd5b505050506040513d601f19601f820116820180604052508101906106c691906115aa565b610705576040517f08c379a00000000000000000000000000000000000000000000000000000000081526004016106fc90611634565b60405180910390fd5b60006103e86103e5876107189190611683565b61072291906116f4565b905080826107309190611725565b838261073c9190611683565b61074691906116f4565b9350600160009054906101000a900473ffffffffffffffffffffffffffffffffffffffff1673ffffffffffffffffffffffffffffffffffffffff1663a9059cbb33866040518363ffffffff1660e01b81526004016107a5929190611759565b6020604051808303816000875af11580156107c4573d6000803e3d6000fd5b505050506040513d601f19601f820116820180604052508101906107e891906115aa565b610827576040517f08c379a000000000000000000000000000000000000000000000000000000000815260040161081e906117ce565b60405180910390fd5b505b505061083361128d565b92915050565b600360009054906101000a900473ffffffffffffffffffffffffffffffffffffffff1681565b61086761123e565b80600360009054906101000a900473ffffffffffffffffffffffffffffffffffffffff1673ffffffffffffffffffffffffffffffffffffffff166370a08231336040518263ffffffff1660e01b81526004016108c39190611501565b602060405180830381865afa1580156108e0573d6000803e3d6000fd5b505050506040513d601f19601f820116820180604052508101906109049190611531565b1015610945576040517f08c379a000000000000000000000000000000000000000000000000000000000815260040161093c9061183a565b60405180910390fd5b6000600360009054906101000a900473ffffffffffffffffffffffffffffffffffffffff1673ffffffffffffffffffffffffffffffffffffffff166318160ddd6040518163ffffffff1660e01b8152600401602060405180830381865afa1580156109b4573d6000803e3d6000fd5b505050506040513d601f19601f820116820180604052508101906109d89190611531565b600160009054906101000a900473ffffffffffffffffffffffffffffffffffffffff1673ffffffffffffffffffffffffffffffffffffffff166370a08231306040518263ffffffff1660e01b8152600401610a339190611501565b602060405180830381865afa158015610a50573d6000803e3d6000fd5b505050506040513d601f19601f82011682018060405250810190610a749190611531565b83610a7f9190611683565b610a8991906116f4565b90506000600360009054906101000a900473ffffffffffffffffffffffffffffffffffffffff1673ffffffffffffffffffffffffffffffffffffffff166318160ddd6040518163ffffffff1660e01b8152600401602060405180830381865afa158015610afa573d6000803e3d6000fd5b505050506040513d601f19601f82011682018060405250810190610b1e9190611531565b600260009054906101000a900473ffffffffffffffffffffffffffffffffffffffff1673ffffffffffffffffffffffffffffffffffffffff166370a08231306040518263ffffffff1660e01b8152600401610b799190611501565b602060405180830381865afa158015610b96573d6000803e3d6000fd5b505050506040513d601f19601f82011682018060405250810190610bba9190611531565b84610bc59190611683565b610bcf91906116f4565b9050600360009054906101000a900473ffffffffffffffffffffffffffffffffffffffff1673ffffffffffffffffffffffffffffffffffffffff16639dc29fac33856040518363ffffffff1660e01b8152600401610c2e929190611759565b600060405180830381600087803b158015610c4857600080fd5b505af1158015610c5c573d6000803e3d6000fd5b50505050600160009054906101000a900473ffffffffffffffffffffffffffffffffffffffff1673ffffffffffffffffffffffffffffffffffffffff1663a9059cbb33846040518363ffffffff1660e01b8152600401610cbd929190611759565b6020604051808303816000875af1158015610cdc573d6000803e3d6000fd5b505050506040513d601f19601f82011682018060405250810190610d0091906115aa565b50600260009054906101000a900473ffffffffffffffffffffffffffffffffffffffff1673ffffffffffffffffffffffffffffffffffffffff1663a9059cbb33836040518363ffffffff1660e01b8152600401610d5e929190611759565b6020604051808303816000875af1158015610d7d573d6000803e3d6000fd5b505050506040513d601f19601f82011682018060405250810190610da191906115aa565b505050610dac61128d565b50565b610db761123e565b600082118015610dc75750600081115b610e06576040517f08c379a0000000000000000000000000000000000000000000000000000000008152600401610dfd906118a6565b60405180910390fd5b6000600360009054906101000a900473ffffffffffffffffffffffffffffffffffffffff1673ffffffffffffffffffffffffffffffffffffffff166318160ddd6040518163ffffffff1660e01b8152600401602060405180830381865afa158015610e75573d6000803e3d6000fd5b505050506040513d601f19601f82011682018060405250810190610e999190611531565b90506000808203610ec35760028385610eb29190611725565b610ebc91906116f4565b9050611035565b6000600160009054906101000a900473ffffffffffffffffffffffffffffffffffffffff1673ffffffffffffffffffffffffffffffffffffffff166370a08231306040518263ffffffff1660e01b8152600401610f209190611501565b602060405180830381865afa158015610f3d573d6000803e3d6000fd5b505050506040513d601f19601f82011682018060405250810190610f619190611531565b90506000600260009054906101000a900473ffffffffffffffffffffffffffffffffffffffff1673ffffffffffffffffffffffffffffffffffffffff166370a08231306040518263ffffffff1660e01b8152600401610fc09190611501565b602060405180830381865afa158015610fdd573d6000803e3d6000fd5b505050506040513d601f19601f820116820180604052508101906110019190611531565b9050808261100f9190611725565b858761101b9190611725565b61102591906116f4565b846110309190611683565b925050505b600160009054906101000a900473ffffffffffffffffffffffffffffffffffffffff1673ffffffffffffffffffffffffffffffffffffffff166323b872dd3330876040518463ffffffff1660e01b81526004016110949392919061155e565b6020604051808303816000875af11580156110b3573d6000803e3d6000fd5b505050506040513d601f19601f820116820180604052508101906110d791906115aa565b50600260009054906101000a900473ffffffffffffffffffffffffffffffffffffffff1673ffffffffffffffffffffffffffffffffffffffff166323b872dd3330866040518463ffffffff1660e01b81526004016111379392919061155e565b6020604051808303816000875af1158015611156573d6000803e3d6000fd5b505050506040513d601f19601f8201168201806040525081019061117a91906115aa565b50600360009054906101000a900473ffffffffffffffffffffffffffffffffffffffff1673ffffffffffffffffffffffffffffffffffffffff166340c10f1933836040518363ffffffff1660e01b81526004016111d8929190611759565b600060405180830381600087803b1580156111f257600080fd5b505af1158015611206573d6000803e3d6000fd5b50505050505061121461128d565b5050565b600160009054906101000a900473ffffffffffffffffffffffffffffffffffffffff1681565b600260005403611283576040517f08c379a000000000000000000000000000000000000000000000000000000000815260040161127a90611912565b60405180910390fd5b6002600081905550565b6001600081905550565b6000819050919050565b6112aa81611297565b82525050565b60006040820190506112c560008301856112a1565b6112d260208301846112a1565b9392505050565b600073ffffffffffffffffffffffffffffffffffffffff82169050919050565b6000819050919050565b600061131e611319611314846112d9565b6112f9565b6112d9565b9050919050565b600061133082611303565b9050919050565b600061134282611325565b9050919050565b61135281611337565b82525050565b600060208201905061136d6000830184611349565b92915050565b600080fd5b61138181611297565b811461138c57600080fd5b50565b60008135905061139e81611378565b92915050565b60008115159050919050565b6113b9816113a4565b81146113c457600080fd5b50565b6000813590506113d6816113b0565b92915050565b600080604083850312156113f3576113f2611373565b5b60006114018582860161138f565b9250506020611412858286016113c7565b9150509250929050565b600060208201905061143160008301846112a1565b92915050565b600061144282611325565b9050919050565b61145281611437565b82525050565b600060208201905061146d6000830184611449565b92915050565b60006020828403121561148957611488611373565b5b60006114978482850161138f565b91505092915050565b600080604083850312156114b7576114b6611373565b5b60006114c58582860161138f565b92505060206114d68582860161138f565b9150509250929050565b60006114eb826112d9565b9050919050565b6114fb816114e0565b82525050565b600060208201905061151660008301846114f2565b92915050565b60008151905061152b81611378565b92915050565b60006020828403121561154757611546611373565b5b60006115558482850161151c565b91505092915050565b600060608201905061157360008301866114f2565b61158060208301856114f2565b61158d60408301846112a1565b949350505050565b6000815190506115a4816113b0565b92915050565b6000602082840312156115c0576115bf611373565b5b60006115ce84828501611595565b91505092915050565b600082825260208201905092915050565b7f5472616e73666572206661696c65640000000000000000000000000000000000600082015250565b600061161e600f836115d7565b9150611629826115e8565b602082019050919050565b6000602082019050818103600083015261164d81611611565b9050919050565b7f4e487b7100000000000000000000000000000000000000000000000000000000600052601160045260246000fd5b600061168e82611297565b915061169983611297565b92508282026116a781611297565b915082820484148315176116be576116bd611654565b5b5092915050565b7f4e487b7100000000000000000000000000000000000000000000000000000000600052601260045260246000fd5b60006116ff82611297565b915061170a83611297565b92508261171a576117196116c5565b5b828204905092915050565b600061173082611297565b915061173b83611297565b925082820190508082111561175357611752611654565b5b92915050565b600060408201905061176e60008301856114f2565b61177b60208301846112a1565b9392505050565b7f53776170206661696c6564000000000000000000000000000000000000000000600082015250565b60006117b8600b836115d7565b91506117c382611782565b602082019050919050565b600060208201905081810360008301526117e7816117ab565b9050919050565b7f496e73756666696369656e74204c5020746f6b656e7300000000000000000000600082015250565b60006118246016836115d7565b915061182f826117ee565b602082019050919050565b6000602082019050818103600083015261185381611817565b9050919050565b7f416d6f756e7473206d7573742062652067726561746572207468616e20300000600082015250565b6000611890601e836115d7565b915061189b8261185a565b602082019050919050565b600060208201905081810360008301526118bf81611883565b9050919050565b7f5265656e7472616e637947756172643a207265656e7472616e742063616c6c00600082015250565b60006118fc601f836115d7565b9150611907826118c6565b602082019050919050565b6000602082019050818103600083015261192b816118ef565b905091905056fea26469706673582212208efbecae8bc6327351dadf06f4bf7d6529f479d441e41aaad5163116c4ee80a664736f6c6343000812003360806040523480156200001157600080fd5b5060405162001fdf38038062001fdf83398181016040528101906200003791906200023b565b818181600390816200004a91906200050b565b5080600490816200005c91906200050b565b50505033600560006101000a81548173ffffffffffffffffffffffffffffffffffffffff021916908373ffffffffffffffffffffffffffffffffffffffff1602179055505050620005f2565b6000604051905090565b600080fd5b600080fd5b600080fd5b600080fd5b6000601f19601f8301169050919050565b7f4e487b7100000000000000000000000000000000000000000000000000000000600052604160045260246000fd5b6200011182620000c6565b810181811067ffffffffffffffff82111715620001335762000132620000d7565b5b80604052505050565b600062000148620000a8565b905062000156828262000106565b919050565b600067ffffffffffffffff821115620001795762000178620000d7565b5b6200018482620000c6565b9050602081019050919050565b60005b83811015620001b157808201518184015260208101905062000194565b60008484015250505050565b6000620001d4620001ce846200015b565b6200013c565b905082815260208101848484011115620001f357620001f2620000c1565b5b6200020084828562000191565b509392505050565b600082601f83011262000220576200021f620000bc565b5b815162000232848260208601620001bd565b91505092915050565b60008060408385031215620002555762000254620000b2565b5b600083015167ffffffffffffffff811115620002765762000275620000b7565b5b620002848582860162000208565b925050602083015167ffffffffffffffff811115620002a857620002a7620000b7565b5b620002b68582860162000208565b9150509250929050565b600081519050919050565b7f4e487b7100000000000000000000000000000000000000000000000000000000600052602260045260246000fd5b600060028204905060018216806200031357607f821691505b602082108103620003295762000328620002cb565b5b50919050565b60008190508160005260206000209050919050565b60006020601f8301049050919050565b600082821b905092915050565b600060088302620003937fffffffffffffffffffffffffffffffffffffffffffffffffffffffffffffffff8262000354565b6200039f868362000354565b95508019841693508086168417925050509392505050565b6000819050919050565b6000819050919050565b6000620003ec620003e6620003e084620003b7565b620003c1565b620003b7565b9050919050565b6000819050919050565b6200040883620003cb565b620004206200041782620003f3565b84845462000361565b825550505050565b600090565b6200043762000428565b62000444818484620003fd565b505050565b5b818110156200046c57620004606000826200042d565b6001810190506200044a565b5050565b601f821115620004bb5762000485816200032f565b620004908462000344565b81016020851015620004a0578190505b620004b8620004af8562000344565b83018262000449565b50505b505050565b600082821c905092915050565b6000620004e060001984600802620004c0565b1980831691505092915050565b6000620004fb8383620004cd565b9150826002028217905092915050565b6200051682620002c0565b67ffffffffffffffff811115620005325762000531620000d7565b5b6200053e8254620002fa565b6200054b82828562000470565b600060209050601f8311600181146200058357600084156200056e578287015190505b6200057a8582620004ed565b865550620005ea565b601f19841662000593866200032f565b60005b82811015620005bd5784890151825560018201915060208501945060208101905062000596565b86831015620005dd5784890151620005d9601f891682620004cd565b8355505b6001600288020188555050505b505050505050565b6119dd80620006026000396000f3fe608060405234801561001057600080fd5b50600436106100ea5760003560e01c8063665a11ca1161008c5780639dc29fac116100665780639dc29fac14610261578063a457c2d71461027d578063a9059cbb146102ad578063dd62ed3e146102dd576100ea565b8063665a11ca146101f557806370a082311461021357806395d89b4114610243576100ea565b806323b872dd116100c857806323b872dd1461015b578063313ce5671461018b57806339509351146101a957806340c10f19146101d9576100ea565b806306fdde03146100ef578063095ea7b31461010d57806318160ddd1461013d575b600080fd5b6100f761030d565b6040516101049190611028565b60405180910390f35b610127600480360381019061012291906110e3565b61039f565b604051610134919061113e565b60405180910390f35b6101456103c2565b6040516101529190611168565b60405180910390f35b61017560048036038101906101709190611183565b6103cc565b604051610182919061113e565b60405180910390f35b6101936103fb565b6040516101a091906111f2565b60405180910390f35b6101c360048036038101906101be91906110e3565b610404565b6040516101d0919061113e565b60405180910390f35b6101f360048036038101906101ee91906110e3565b61043b565b005b6101fd6104d9565b60405161020a919061121c565b60405180910390f35b61022d60048036038101906102289190611237565b6104ff565b60405161023a9190611168565b60405180910390f35b61024b610547565b6040516102589190611028565b60405180910390f35b61027b600480360381019061027691906110e3565b6105d9565b005b610297600480360381019061029291906110e3565b610677565b6040516102a4919061113e565b60405180910390f35b6102c760048036038101906102c291906110e3565b6106ee565b6040516102d4919061113e565b60405180910390f35b6102f760048036038101906102f29190611264565b610711565b6040516103049190611168565b60405180910390f35b60606003805461031c906112d3565b80601f0160208091040260200160405190810160405280929190818152602001828054610348906112d3565b80156103955780601f1061036a57610100808354040283529160200191610395565b820191906000526020600020905b81548152906001019060200180831161037857829003601f168201915b5050505050905090565b6000806103aa610798565b90506103b78185856107a0565b600191505092915050565b6000600254905090565b6000806103d7610798565b90506103e4858285610969565b6103ef8585856109f5565b60019150509392505050565b60006012905090565b60008061040f610798565b90506104308185856104218589610711565b61042b9190611333565b6107a0565b600191505092915050565b600560009054906101000a900473ffffffffffffffffffffffffffffffffffffffff1673ffffffffffffffffffffffffffffffffffffffff163373ffffffffffffffffffffffffffffffffffffffff16146104cb576040517f08c379a00000000000000000000000000000000000000000000000000000000081526004016104c2906113b3565b60405180910390fd5b6104d58282610c6b565b5050565b600560009054906101000a900473ffffffffffffffffffffffffffffffffffffffff1681565b60008060008373ffffffffffffffffffffffffffffffffffffffff1673ffffffffffffffffffffffffffffffffffffffff168152602001908152602001600020549050919050565b606060048054610556906112d3565b80601f0160208091040260200160405190810160405280929190818152602001828054610582906112d3565b80156105cf5780601f106105a4576101008083540402835291602001916105cf565b820191906000526020600020905b8154815290600101906020018083116105b257829003601f168201915b5050505050905090565b600560009054906101000a900473ffffffffffffffffffffffffffffffffffffffff1673ffffffffffffffffffffffffffffffffffffffff163373ffffffffffffffffffffffffffffffffffffffff1614610669576040517f08c379a00000000000000000000000000000000000000000000000000000000081526004016106609061141f565b60405180910390fd5b6106738282610dc1565b5050565b600080610682610798565b905060006106908286610711565b9050838110156106d5576040517f08c379a00000000000000000000000000000000000000000000000000000000081526004016106cc906114b1565b60405180910390fd5b6106e282868684036107a0565b60019250505092915050565b6000806106f9610798565b90506107068185856109f5565b600191505092915050565b6000600160008473ffffffffffffffffffffffffffffffffffffffff1673ffffffffffffffffffffffffffffffffffffffff16815260200190815260200160002060008373ffffffffffffffffffffffffffffffffffffffff1673ffffffffffffffffffffffffffffffffffffffff16815260200190815260200160002054905092915050565b600033905090565b600073ffffffffffffffffffffffffffffffffffffffff168373ffffffffffffffffffffffffffffffffffffffff160361080f576040517f08c379a000000000000000000000000000000000000000000000000000000000815260040161080690611543565b60405180910390fd5b600073ffffffffffffffffffffffffffffffffffffffff168273ffffffffffffffffffffffffffffffffffffffff160361087e576040517f08c379a0000000000000000000000000000000000000000000000000000000008152600401610875906115d5565b60405180910390fd5b80600160008573ffffffffffffffffffffffffffffffffffffffff1673ffffffffffffffffffffffffffffffffffffffff16815260200190815260200160002060008473ffffffffffffffffffffffffffffffffffffffff1673ffffffffffffffffffffffffffffffffffffffff168152602001908152602001600020819055508173ffffffffffffffffffffffffffffffffffffffff168373ffffffffffffffffffffffffffffffffffffffff167f8c5be1e5ebec7d5bd14f71427d1e84f3dd0314c0f7b2291e5b200ac8c7c3b9258360405161095c9190611168565b60405180910390a3505050565b60006109758484610711565b90507fffffffffffffffffffffffffffffffffffffffffffffffffffffffffffffffff81146109ef57818110156109e1576040517f08c379a00000000000000000000000000000000000000000000000000000000081526004016109d890611641565b60405180910390fd5b6109ee84848484036107a0565b5b50505050565b600073ffffffffffffffffffffffffffffffffffffffff168373ffffffffffffffffffffffffffffffffffffffff1603610a64576040517f08c379a0000000000000000000000000000000000000000000000000000000008152600401610a5b906116d3565b60405180910390fd5b600073ffffffffffffffffffffffffffffffffffffffff168273ffffffffffffffffffffffffffffffffffffffff1603610ad3576040517f08c379a0000000000000000000000000000000000000000000000000000000008152600401610aca90611765565b60405180910390fd5b610ade838383610f8e565b60008060008573ffffffffffffffffffffffffffffffffffffffff1673ffffffffffffffffffffffffffffffffffffffff16815260200190815260200160002054905081811015610b64576040517f08c379a0000000000000000000000000000000000000000000000000000000008152600401610b5b906117f7565b60405180910390fd5b8181036000808673ffffffffffffffffffffffffffffffffffffffff1673ffffffffffffffffffffffffffffffffffffffff16815260200190815260200160002081905550816000808573ffffffffffffffffffffffffffffffffffffffff1673ffffffffffffffffffffffffffffffffffffffff168152602001908152602001600020600082825401925050819055508273ffffffffffffffffffffffffffffffffffffffff168473ffffffffffffffffffffffffffffffffffffffff167fddf252ad1be2c89b69c2b068fc378daa952ba7f163c4a11628f55a4df523b3ef84604051610c529190611168565b60405180910390a3610c65848484610f93565b50505050565b600073ffffffffffffffffffffffffffffffffffffffff168273ffffffffffffffffffffffffffffffffffffffff1603610cda576040517f08c379a0000000000000000000000000000000000000000000000000000000008152600401610cd190611863565b60405180910390fd5b610ce660008383610f8e565b8060026000828254610cf89190611333565b92505081905550806000808473ffffffffffffffffffffffffffffffffffffffff1673ffffffffffffffffffffffffffffffffffffffff168152602001908152602001600020600082825401925050819055508173ffffffffffffffffffffffffffffffffffffffff16600073ffffffffffffffffffffffffffffffffffffffff167fddf252ad1be2c89b69c2b068fc378daa952ba7f163c4a11628f55a4df523b3ef83604051610da99190611168565b60405180910390a3610dbd60008383610f93565b5050565b600073ffffffffffffffffffffffffffffffffffffffff168273ffffffffffffffffffffffffffffffffffffffff1603610e30576040517f08c379a0000000000000000000000000000000000000000000000000000000008152600401610e27906118f5565b60405180910390fd5b610e3c82600083610f8e565b60008060008473ffffffffffffffffffffffffffffffffffffffff1673ffffffffffffffffffffffffffffffffffffffff16815260200190815260200160002054905081811015610ec2576040517f08c379a0000000000000000000000000000000000000000000000000000000008152600401610eb990611987565b60405180910390fd5b8181036000808573ffffffffffffffffffffffffffffffffffffffff1673ffffffffffffffffffffffffffffffffffffffff1681526020019081526020016000208190555081600260008282540392505081905550600073ffffffffffffffffffffffffffffffffffffffff168373ffffffffffffffffffffffffffffffffffffffff167fddf252ad1be2c89b69c2b068fc378daa952ba7f163c4a11628f55a4df523b3ef84604051610f759190611168565b60405180910390a3610f8983600084610f93565b505050565b505050565b505050565b600081519050919050565b600082825260208201905092915050565b60005b83811015610fd2578082015181840152602081019050610fb7565b60008484015250505050565b6000601f19601f8301169050919050565b6000610ffa82610f98565b6110048185610fa3565b9350611014818560208601610fb4565b61101d81610fde565b840191505092915050565b600060208201905081810360008301526110428184610fef565b905092915050565b600080fd5b600073ffffffffffffffffffffffffffffffffffffffff82169050919050565b600061107a8261104f565b9050919050565b61108a8161106f565b811461109557600080fd5b50565b6000813590506110a781611081565b92915050565b6000819050919050565b6110c0816110ad565b81146110cb57600080fd5b50565b6000813590506110dd816110b7565b92915050565b600080604083850312156110fa576110f961104a565b5b600061110885828601611098565b9250506020611119858286016110ce565b9150509250929050565b60008115159050919050565b61113881611123565b82525050565b6000602082019050611153600083018461112f565b92915050565b611162816110ad565b82525050565b600060208201905061117d6000830184611159565b92915050565b60008060006060848603121561119c5761119b61104a565b5b60006111aa86828701611098565b93505060206111bb86828701611098565b92505060406111cc868287016110ce565b9150509250925092565b600060ff82169050919050565b6111ec816111d6565b82525050565b600060208201905061120760008301846111e3565b92915050565b6112168161106f565b82525050565b6000602082019050611231600083018461120d565b92915050565b60006020828403121561124d5761124c61104a565b5b600061125b84828501611098565b91505092915050565b6000806040838503121561127b5761127a61104a565b5b600061128985828601611098565b925050602061129a85828601611098565b9150509250929050565b7f4e487b7100000000000000000000000000000000000000000000000000000000600052602260045260246000fd5b600060028204905060018216806112eb57607f821691505b6020821081036112fe576112fd6112a4565b5b50919050565b7f4e487b7100000000000000000000000000000000000000000000000000000000600052601160045260246000fd5b600061133e826110ad565b9150611349836110ad565b925082820190508082111561136157611360611304565b5b92915050565b7f4f6e6c7920706f6f6c2063616e206d696e740000000000000000000000000000600082015250565b600061139d601283610fa3565b91506113a882611367565b602082019050919050565b600060208201905081810360008301526113cc81611390565b9050919050565b7f4f6e6c7920706f6f6c2063616e206275726e0000000000000000000000000000600082015250565b6000611409601283610fa3565b9150611414826113d3565b602082019050919050565b60006020820190508181036000830152611438816113fc565b9050919050565b7f45524332303a2064656372656173656420616c6c6f77616e63652062656c6f7760008201527f207a65726f000000000000000000000000000000000000000000000000000000602082015250565b600061149b602583610fa3565b91506114a68261143f565b604082019050919050565b600060208201905081810360008301526114ca8161148e565b9050919050565b7f45524332303a20617070726f76652066726f6d20746865207a65726f2061646460008201527f7265737300000000000000000000000000000000000000000000000000000000602082015250565b600061152d602483610fa3565b9150611538826114d1565b604082019050919050565b6000602082019050818103600083015261155c81611520565b9050919050565b7f45524332303a20617070726f766520746f20746865207a65726f20616464726560008201527f7373000000000000000000000000000000000000000000000000000000000000602082015250565b60006115bf602283610fa3565b91506115ca82611563565b604082019050919050565b600060208201905081810360008301526115ee816115b2565b9050919050565b7f45524332303a20696e73756666696369656e7420616c6c6f77616e6365000000600082015250565b600061162b601d83610fa3565b9150611636826115f5565b602082019050919050565b6000602082019050818103600083015261165a8161161e565b9050919050565b7f45524332303a207472616e736665722066726f6d20746865207a65726f20616460008201527f6472657373000000000000000000000000000000000000000000000000000000602082015250565b60006116bd602583610fa3565b91506116c882611661565b604082019050919050565b600060208201905081810360008301526116ec816116b0565b9050919050565b7f45524332303a207472616e7366657220746f20746865207a65726f206164647260008201527f6573730000000000000000000000000000000000000000000000000000000000602082015250565b600061174f602383610fa3565b915061175a826116f3565b604082019050919050565b6000602082019050818103600083015261177e81611742565b9050919050565b7f45524332303a207472616e7366657220616d6f756e742065786365656473206260008201527f616c616e63650000000000000000000000000000000000000000000000000000602082015250565b60006117e1602683610fa3565b91506117ec82611785565b604082019050919050565b60006020820190508181036000830152611810816117d4565b9050919050565b7f45524332303a206d696e7420746f20746865207a65726f206164647265737300600082015250565b600061184d601f83610fa3565b915061185882611817565b602082019050919050565b6000602082019050818103600083015261187c81611840565b9050919050565b7f45524332303a206275726e2066726f6d20746865207a65726f2061646472657360008201527f7300000000000000000000000000000000000000000000000000000000000000602082015250565b60006118df602183610fa3565b91506118ea82611883565b604082019050919050565b6000602082019050818103600083015261190e816118d2565b9050919050565b7f45524332303a206275726e20616d6f756e7420657863656564732062616c616e60008201527f6365000000000000000000000000000000000000000000000000000000000000602082015250565b6000611971602283610fa3565b915061197c82611915565b604082019050919050565b600060208201905081810360008301526119a081611964565b905091905056fea264697066735822122066bb09584e5ae2ec46c4fe47df649388ce9d9e794e6d7211952fe0f93afd80d764736f6c63430008120033a26469706673582212208981871f8b8b50d7ee33606a9520bae77db2b589f0ace681f9330e2706c1de5964736f6c63430008120033",
  "linkReferences": {},
  "deployedLinkReferences": {}
}