{
  "_format": "hh-sol-artifact-1",
  "contractName": "LiquidityPool",
  "sourceName": "contracts/LiquidityPool.sol",
  "abi": [
    {
      "inputs": [
        {
          "internalType": "address",
          "name": "_tokenA",
          "type": "address"
        },
        {
          "internalType": "address",
          "name": "_tokenB",
          "type": "address"
        }
      ],
      "stateMutability": "nonpayable",
      "type": "constructor"
    },
    {
      "inputs": [
        {
          "internalType": "uint256",
          "name": "amountA",
          "type": "uint256"
        },
        {
          "internalType": "uint256",
          "name": "amountB",
          "type": "uint256"
        }
      ],
      "name": "addLiquidity",
      "outputs": [],
      "stateMutability": "nonpayable",
      "type": "function"
    },
    {
      "inputs": [
        {
          "internalType": "address",
          "name": "",
          "type": "address"
        }
      ],
      "name": "liquidityA",
      "outputs": [
        {
          "internalType": "uint256",
          "name": "",
          "type": "uint256"
        }
      ],
      "stateMutability": "view",
      "type": "function"
    },
    {
      "inputs": [
        {
          "internalType": "address",
          "name": "",
          "type": "address"
        }
      ],
      "name": "liquidityB",
      "outputs": [
        {
          "internalType": "uint256",
          "name": "",
          "type": "uint256"
        }
      ],
      "stateMutability": "view",
      "type": "function"
    },
    {
      "inputs": [
        {
          "internalType": "uint256",
          "name": "amountA",
          "type": "uint256"
        },
        {
          "internalType": "uint256",
          "name": "amountB",
          "type": "uint256"
        }
      ],
      "name": "removeLiquidity",
      "outputs": [],
      "stateMutability": "nonpayable",
      "type": "function"
    },
    {
      "inputs": [
        {
          "internalType": "address",
          "name": "fromToken",
          "type": "address"
        },
        {
          "internalType": "address",
          "name": "toToken",
          "type": "address"
        },
        {
          "internalType": "uint256",
          "name": "amount",
          "type": "uint256"
        }
      ],
      "name": "swap",
      "outputs": [],
      "stateMutability": "nonpayable",
      "type": "function"
    },
    {
      "inputs": [],
      "name": "tokenA",
      "outputs": [
        {
          "internalType": "contract IERC20",
          "name": "",
          "type": "address"
        }
      ],
      "stateMutability": "view",
      "type": "function"
    },
    {
      "inputs": [],
      "name": "tokenB",
      "outputs": [
        {
          "internalType": "contract IERC20",
          "name": "",
          "type": "address"
        }
      ],
      "stateMutability": "view",
      "type": "function"
    },
    {
      "inputs": [],
      "name": "totalLiquidityA",
      "outputs": [
        {
          "internalType": "uint256",
          "name": "",
          "type": "uint256"
        }
      ],
      "stateMutability": "view",
      "type": "function"
    },
    {
      "inputs": [],
      "name": "totalLiquidityB",
      "outputs": [
        {
          "internalType": "uint256",
          "name": "",
          "type": "uint256"
        }
      ],
      "stateMutability": "view",
      "type": "function"
    }
  ],
  "bytecode": "0x60806040523480156200001157600080fd5b50604051620014ce380380620014ce83398181016040528101906200003791906200012a565b816000806101000a81548173ffffffffffffffffffffffffffffffffffffffff021916908373ffffffffffffffffffffffffffffffffffffffff16021790555080600160006101000a81548173ffffffffffffffffffffffffffffffffffffffff021916908373ffffffffffffffffffffffffffffffffffffffff160217905550505062000171565b600080fd5b600073ffffffffffffffffffffffffffffffffffffffff82169050919050565b6000620000f282620000c5565b9050919050565b6200010481620000e5565b81146200011057600080fd5b50565b6000815190506200012481620000f9565b92915050565b60008060408385031215620001445762000143620000c0565b5b6000620001548582860162000113565b9250506020620001678582860162000113565b9150509250929050565b61134d80620001816000396000f3fe608060405234801561001057600080fd5b50600436106100935760003560e01c80639d7de6b3116100665780639d7de6b314610120578063b14815a91461013c578063df791e501461015a578063e29556ee14610176578063fc5c4163146101a657610093565b80630fc63d10146100985780635f64b55b146100b657806386731a8f146100d45780639cd441da14610104575b600080fd5b6100a06101c4565b6040516100ad9190610cdc565b60405180910390f35b6100be6101e8565b6040516100cb9190610cdc565b60405180910390f35b6100ee60048036038101906100e99190610d3a565b61020e565b6040516100fb9190610d80565b60405180910390f35b61011e60048036038101906101199190610dc7565b610226565b005b61013a60048036038101906101359190610dc7565b61049b565b005b61014461078a565b6040516101519190610d80565b60405180910390f35b610174600480360381019061016f9190610e07565b610790565b005b610190600480360381019061018b9190610d3a565b610c3f565b60405161019d9190610d80565b60405180910390f35b6101ae610c57565b6040516101bb9190610d80565b60405180910390f35b60008054906101000a900473ffffffffffffffffffffffffffffffffffffffff1681565b600160009054906101000a900473ffffffffffffffffffffffffffffffffffffffff1681565b60056020528060005260406000206000915090505481565b6000821180156102365750600081115b610275576040517f08c379a000000000000000000000000000000000000000000000000000000000815260040161026c90610edd565b60405180910390fd5b60008054906101000a900473ffffffffffffffffffffffffffffffffffffffff1673ffffffffffffffffffffffffffffffffffffffff166323b872dd3330856040518463ffffffff1660e01b81526004016102d293929190610f0c565b6020604051808303816000875af11580156102f1573d6000803e3d6000fd5b505050506040513d601f19601f820116820180604052508101906103159190610f7b565b50600160009054906101000a900473ffffffffffffffffffffffffffffffffffffffff1673ffffffffffffffffffffffffffffffffffffffff166323b872dd3330846040518463ffffffff1660e01b815260040161037593929190610f0c565b6020604051808303816000875af1158015610394573d6000803e3d6000fd5b505050506040513d601f19601f820116820180604052508101906103b89190610f7b565b5081600260008282546103cb9190610fd7565b9250508190555080600360008282546103e49190610fd7565b9250508190555081600460003373ffffffffffffffffffffffffffffffffffffffff1673ffffffffffffffffffffffffffffffffffffffff168152602001908152602001600020600082825461043a9190610fd7565b9250508190555080600560003373ffffffffffffffffffffffffffffffffffffffff1673ffffffffffffffffffffffffffffffffffffffff16815260200190815260200160002060008282546104909190610fd7565b925050819055505050565b81600460003373ffffffffffffffffffffffffffffffffffffffff1673ffffffffffffffffffffffffffffffffffffffff1681526020019081526020016000205410158015610529575080600560003373ffffffffffffffffffffffffffffffffffffffff1673ffffffffffffffffffffffffffffffffffffffff1681526020019081526020016000205410155b610568576040517f08c379a000000000000000000000000000000000000000000000000000000000815260040161055f90611057565b60405180910390fd5b81600460003373ffffffffffffffffffffffffffffffffffffffff1673ffffffffffffffffffffffffffffffffffffffff16815260200190815260200160002060008282546105b79190611077565b9250508190555080600560003373ffffffffffffffffffffffffffffffffffffffff1673ffffffffffffffffffffffffffffffffffffffff168152602001908152602001600020600082825461060d9190611077565b9250508190555081600260008282546106269190611077565b92505081905550806003600082825461063f9190611077565b9250508190555060008054906101000a900473ffffffffffffffffffffffffffffffffffffffff1673ffffffffffffffffffffffffffffffffffffffff1663a9059cbb33846040518363ffffffff1660e01b81526004016106a19291906110ab565b6020604051808303816000875af11580156106c0573d6000803e3d6000fd5b505050506040513d601f19601f820116820180604052508101906106e49190610f7b565b50600160009054906101000a900473ffffffffffffffffffffffffffffffffffffffff1673ffffffffffffffffffffffffffffffffffffffff1663a9059cbb33836040518363ffffffff1660e01b81526004016107429291906110ab565b6020604051808303816000875af1158015610761573d6000803e3d6000fd5b505050506040513d601f19601f820116820180604052508101906107859190610f7b565b505050565b60025481565b60008054906101000a900473ffffffffffffffffffffffffffffffffffffffff1673ffffffffffffffffffffffffffffffffffffffff168373ffffffffffffffffffffffffffffffffffffffff161480156108385750600160009054906101000a900473ffffffffffffffffffffffffffffffffffffffff1673ffffffffffffffffffffffffffffffffffffffff168273ffffffffffffffffffffffffffffffffffffffff16145b806108e75750600160009054906101000a900473ffffffffffffffffffffffffffffffffffffffff1673ffffffffffffffffffffffffffffffffffffffff168373ffffffffffffffffffffffffffffffffffffffff161480156108e6575060008054906101000a900473ffffffffffffffffffffffffffffffffffffffff1673ffffffffffffffffffffffffffffffffffffffff168273ffffffffffffffffffffffffffffffffffffffff16145b5b610926576040517f08c379a000000000000000000000000000000000000000000000000000000000815260040161091d90611120565b60405180910390fd5b6000839050600083905060008060009054906101000a900473ffffffffffffffffffffffffffffffffffffffff1673ffffffffffffffffffffffffffffffffffffffff168673ffffffffffffffffffffffffffffffffffffffff161461099b57600354600254610996919061116f565b6109ac565b6002546003546109ab919061116f565b5b9050600081856109bc91906111a0565b9050848473ffffffffffffffffffffffffffffffffffffffff166370a08231336040518263ffffffff1660e01b81526004016109f891906111e2565b602060405180830381865afa158015610a15573d6000803e3d6000fd5b505050506040513d601f19601f82011682018060405250810190610a399190611212565b1015610a7a576040517f08c379a0000000000000000000000000000000000000000000000000000000008152600401610a719061128b565b60405180910390fd5b808373ffffffffffffffffffffffffffffffffffffffff166370a08231306040518263ffffffff1660e01b8152600401610ab491906111e2565b602060405180830381865afa158015610ad1573d6000803e3d6000fd5b505050506040513d601f19601f82011682018060405250810190610af59190611212565b1015610b36576040517f08c379a0000000000000000000000000000000000000000000000000000000008152600401610b2d906112f7565b60405180910390fd5b8373ffffffffffffffffffffffffffffffffffffffff166323b872dd3330886040518463ffffffff1660e01b8152600401610b7393929190610f0c565b6020604051808303816000875af1158015610b92573d6000803e3d6000fd5b505050506040513d601f19601f82011682018060405250810190610bb69190610f7b565b508273ffffffffffffffffffffffffffffffffffffffff1663a9059cbb33836040518363ffffffff1660e01b8152600401610bf29291906110ab565b6020604051808303816000875af1158015610c11573d6000803e3d6000fd5b505050506040513d601f19601f82011682018060405250810190610c359190610f7b565b5050505050505050565b60046020528060005260406000206000915090505481565b60035481565b600073ffffffffffffffffffffffffffffffffffffffff82169050919050565b6000819050919050565b6000610ca2610c9d610c9884610c5d565b610c7d565b610c5d565b9050919050565b6000610cb482610c87565b9050919050565b6000610cc682610ca9565b9050919050565b610cd681610cbb565b82525050565b6000602082019050610cf16000830184610ccd565b92915050565b600080fd5b6000610d0782610c5d565b9050919050565b610d1781610cfc565b8114610d2257600080fd5b50565b600081359050610d3481610d0e565b92915050565b600060208284031215610d5057610d4f610cf7565b5b6000610d5e84828501610d25565b91505092915050565b6000819050919050565b610d7a81610d67565b82525050565b6000602082019050610d956000830184610d71565b92915050565b610da481610d67565b8114610daf57600080fd5b50565b600081359050610dc181610d9b565b92915050565b60008060408385031215610dde57610ddd610cf7565b5b6000610dec85828601610db2565b9250506020610dfd85828601610db2565b9150509250929050565b600080600060608486031215610e2057610e1f610cf7565b5b6000610e2e86828701610d25565b9350506020610e3f86828701610d25565b9250506040610e5086828701610db2565b9150509250925092565b600082825260208201905092915050565b7f416d6f756e7473206d7573742062652067726561746572207468616e207a657260008201527f6f00000000000000000000000000000000000000000000000000000000000000602082015250565b6000610ec7602183610e5a565b9150610ed282610e6b565b604082019050919050565b60006020820190508181036000830152610ef681610eba565b9050919050565b610f0681610cfc565b82525050565b6000606082019050610f216000830186610efd565b610f2e6020830185610efd565b610f3b6040830184610d71565b949350505050565b60008115159050919050565b610f5881610f43565b8114610f6357600080fd5b50565b600081519050610f7581610f4f565b92915050565b600060208284031215610f9157610f90610cf7565b5b6000610f9f84828501610f66565b91505092915050565b7f4e487b7100000000000000000000000000000000000000000000000000000000600052601160045260246000fd5b6000610fe282610d67565b9150610fed83610d67565b925082820190508082111561100557611004610fa8565b5b92915050565b7f496e73756666696369656e74206c697175696469747900000000000000000000600082015250565b6000611041601683610e5a565b915061104c8261100b565b602082019050919050565b6000602082019050818103600083015261107081611034565b9050919050565b600061108282610d67565b915061108d83610d67565b92508282039050818111156110a5576110a4610fa8565b5b92915050565b60006040820190506110c06000830185610efd565b6110cd6020830184610d71565b9392505050565b7f496e76616c696420746f6b656e20706169720000000000000000000000000000600082015250565b600061110a601283610e5a565b9150611115826110d4565b602082019050919050565b60006020820190508181036000830152611139816110fd565b9050919050565b7f4e487b7100000000000000000000000000000000000000000000000000000000600052601260045260246000fd5b600061117a82610d67565b915061118583610d67565b92508261119557611194611140565b5b828204905092915050565b60006111ab82610d67565b91506111b683610d67565b92508282026111c481610d67565b915082820484148315176111db576111da610fa8565b5b5092915050565b60006020820190506111f76000830184610efd565b92915050565b60008151905061120c81610d9b565b92915050565b60006020828403121561122857611227610cf7565b5b6000611236848285016111fd565b91505092915050565b7f496e73756666696369656e742062616c616e6365000000000000000000000000600082015250565b6000611275601483610e5a565b91506112808261123f565b602082019050919050565b600060208201905081810360008301526112a481611268565b9050919050565b7f496e73756666696369656e7420706f6f6c206c69717569646974790000000000600082015250565b60006112e1601b83610e5a565b91506112ec826112ab565b602082019050919050565b60006020820190508181036000830152611310816112d4565b905091905056fea2646970667358221220e7999ddf71de76826049620ad1ba698f76ad2b1ec0eab255216faf9ff40710ca64736f6c63430008140033",
  "linkReferences": {},
  "deployedLinkReferences": {}
}