{
  "_format": "hh-sol-artifact-1",
  "contractName": "LiquidityPoolRouter",
  "sourceName": "contracts/LiquidityPoolRouter.sol",
  "abi": [
    {
      "inputs": [
        {
          "internalType": "address",
          "name": "_factory",
          "type": "address"
        }
      ],
      "stateMutability": "nonpayable",
      "type": "constructor"
    },
    {
      "inputs": [],
      "name": "factory",
      "outputs": [
        {
          "internalType": "contract LiquidityPoolFactory",
          "name": "",
          "type": "address"
        }
      ],
      "stateMutability": "view",
      "type": "function"
    },
    {
      "inputs": [
        {
          "internalType": "address",
          "name": "tokenIn",
          "type": "address"
        },
        {
          "internalType": "address",
          "name": "tokenOut",
          "type": "address"
        },
        {
          "internalType": "uint256",
          "name": "amountIn",
          "type": "uint256"
        }
      ],
      "name": "swapExactTokens",
      "outputs": [
        {
          "internalType": "uint256",
          "name": "amountOut",
          "type": "uint256"
        }
      ],
      "stateMutability": "nonpayable",
      "type": "function"
    }
  ],
  "bytecode": "0x608060405234801561001057600080fd5b5060405161095f38038061095f833981810160405281019061003291906100db565b806000806101000a81548173ffffffffffffffffffffffffffffffffffffffff021916908373ffffffffffffffffffffffffffffffffffffffff16021790555050610108565b600080fd5b600073ffffffffffffffffffffffffffffffffffffffff82169050919050565b60006100a88261007d565b9050919050565b6100b88161009d565b81146100c357600080fd5b50565b6000815190506100d5816100af565b92915050565b6000602082840312156100f1576100f0610078565b5b60006100ff848285016100c6565b91505092915050565b610848806101176000396000f3fe608060405234801561001057600080fd5b50600436106100365760003560e01c8063c45a01551461003b578063d76ed2a114610059575b600080fd5b610043610089565b6040516100509190610460565b60405180910390f35b610073600480360381019061006e91906104f4565b6100ad565b6040516100809190610556565b60405180910390f35b60008054906101000a900473ffffffffffffffffffffffffffffffffffffffff1681565b60008060008054906101000a900473ffffffffffffffffffffffffffffffffffffffff1673ffffffffffffffffffffffffffffffffffffffff1663531aa03e86866040518363ffffffff1660e01b815260040161010b929190610580565b602060405180830381865afa158015610128573d6000803e3d6000fd5b505050506040513d601f19601f8201168201806040525081019061014c91906105be565b9050600073ffffffffffffffffffffffffffffffffffffffff168173ffffffffffffffffffffffffffffffffffffffff16036101bd576040517f08c379a00000000000000000000000000000000000000000000000000000000081526004016101b490610648565b60405180910390fd5b8473ffffffffffffffffffffffffffffffffffffffff166323b872dd3383866040518463ffffffff1660e01b81526004016101fa93929190610668565b6020604051808303816000875af1158015610219573d6000803e3d6000fd5b505050506040513d601f19601f8201168201806040525081019061023d91906106d7565b508073ffffffffffffffffffffffffffffffffffffffff16632aea6605848373ffffffffffffffffffffffffffffffffffffffff1663d21220a76040518163ffffffff1660e01b8152600401602060405180830381865afa1580156102a6573d6000803e3d6000fd5b505050506040513d601f19601f820116820180604052508101906102ca9190610742565b73ffffffffffffffffffffffffffffffffffffffff168873ffffffffffffffffffffffffffffffffffffffff16146040518363ffffffff1660e01b815260040161031592919061077e565b6020604051808303816000875af1158015610334573d6000803e3d6000fd5b505050506040513d601f19601f8201168201806040525081019061035891906107bc565b91508373ffffffffffffffffffffffffffffffffffffffff1663a9059cbb33846040518363ffffffff1660e01b81526004016103959291906107e9565b6020604051808303816000875af11580156103b4573d6000803e3d6000fd5b505050506040513d601f19601f820116820180604052508101906103d891906106d7565b50509392505050565b600073ffffffffffffffffffffffffffffffffffffffff82169050919050565b6000819050919050565b600061042661042161041c846103e1565b610401565b6103e1565b9050919050565b60006104388261040b565b9050919050565b600061044a8261042d565b9050919050565b61045a8161043f565b82525050565b60006020820190506104756000830184610451565b92915050565b600080fd5b600061048b826103e1565b9050919050565b61049b81610480565b81146104a657600080fd5b50565b6000813590506104b881610492565b92915050565b6000819050919050565b6104d1816104be565b81146104dc57600080fd5b50565b6000813590506104ee816104c8565b92915050565b60008060006060848603121561050d5761050c61047b565b5b600061051b868287016104a9565b935050602061052c868287016104a9565b925050604061053d868287016104df565b9150509250925092565b610550816104be565b82525050565b600060208201905061056b6000830184610547565b92915050565b61057a81610480565b82525050565b60006040820190506105956000830185610571565b6105a26020830184610571565b9392505050565b6000815190506105b881610492565b92915050565b6000602082840312156105d4576105d361047b565b5b60006105e2848285016105a9565b91505092915050565b600082825260208201905092915050565b7f506f6f6c20646f6573206e6f7420657869737400000000000000000000000000600082015250565b60006106326013836105eb565b915061063d826105fc565b602082019050919050565b6000602082019050818103600083015261066181610625565b9050919050565b600060608201905061067d6000830186610571565b61068a6020830185610571565b6106976040830184610547565b949350505050565b60008115159050919050565b6106b48161069f565b81146106bf57600080fd5b50565b6000815190506106d1816106ab565b92915050565b6000602082840312156106ed576106ec61047b565b5b60006106fb848285016106c2565b91505092915050565b600061070f82610480565b9050919050565b61071f81610704565b811461072a57600080fd5b50565b60008151905061073c81610716565b92915050565b6000602082840312156107585761075761047b565b5b60006107668482850161072d565b91505092915050565b6107788161069f565b82525050565b60006040820190506107936000830185610547565b6107a0602083018461076f565b9392505050565b6000815190506107b6816104c8565b92915050565b6000602082840312156107d2576107d161047b565b5b60006107e0848285016107a7565b91505092915050565b60006040820190506107fe6000830185610571565b61080b6020830184610547565b939250505056fea264697066735822122054f23e3f46298d5641e6390730deaac3eb00cb100c5d9ae9a32f602f7503ab5764736f6c63430008120033",
  "linkReferences": {},
  "deployedLinkReferences": {}
}